:020000041000EA
:1000000000B5324B212058609868022188439860DF
:10001000D860186158612E4B002199600221596106
:100020000121F02299502B49196001219960352056
:1000300000F044F80222904214D00621196600F024
:1000400034F8196E01211966002018661A6600F04E
:100050002CF8196E196E196E052000F02FF8012189
:100060000842F9D1002199601B49196000215960AB
:100070001A491B48016001219960EB211966A021F2
:10008000196600F012F800219960164914480160C1
:100090000121996001BC002800D000471248134993
:1000A000086003C880F30888084703B5996A0420EC
:1000B0000142FBD001200142F8D103BD02B5186610
:1000C0001866FFF7F2FF186E186E02BD00000240BE
:1000D000000000180000070000035F00212200005C
:1000E000F4000018222000A00001001008ED00E03C
:1000F00000000000000000000000000074B24E7A12
:1001000000200420F7010010C3010010C5010010F9
:10011000C1010010C1010010C1010010C101001097
:10012000C1010010C1010010C1010010C701001081
:10013000C1010010C1010010C9010010CB01001065
:10014000CD010010CD010010CD010010CD01001037
:10015000CD010010CD010010CD010010CD01001027
:10016000CD010010CD010010CD010010CD01001017
:10017000CD010010CD010010CD010010CD01001007
:10018000CD010010CD010010CD010010CD010010F7
:10019000CD010010CD010010CD010010CD010010E7
:1001A000CD010010CD010010CD010010CD010010D7
:1001B000CD010010CD010010CD010010CD010010C7
:1001C00000BE00BE00BE00BE00BE00BEEFF3058054
:1001D000103800BEF2EB8871E44401100C450110A8
:1001E0003402001090A31AE700201F49086006C8D7
:1001F00081F3088810471D48006800282FD10DA4FE
:100200000ECC002902D000F012F8F9E71849194A7B
:10021000002000E001C19142FCD1174988471749ED
:1002200088471749884700BEFDE701C901C29A42C5
:10023000FBD370470C450110C0000020EC1A0020D1
:10024000385F01100000042000000420385F011016
:10025000001004200010042000000000704709482E
:1002600005F06CF80047000008ED00E0000000D049
:10027000F01A0020942C0020E1390010A104001095
:10028000093B00105756000006005250ABB36053B4
:10029000C42C011006005250861C0302EC2C0110E5
:1002A000060052505422A29DF82C01100500525015
:1002B000DE65F468385F0110F8B5C046044B10B530
:1002C000002B03D00349044800E000BF10BDC04626
:1002D000000000000C2B0020002B0110D0238022F6
:1002E000F0B512011B0687B05A612B492B4806F066
:1002F00017F92B4C01212060284806F0F3F8294B10
:100300000500186007210C20266801F063FD012319
:1003100029000C222148009306F0CEF980235B02CD
:100320000293F31CF2011B0313431F4A05201340E1
:1003300003931E4B05931E4B049303F0DDFA05F067
:1003400003FC1C4905F0E5FB071C05F025FC84B205
:100350000023002C0ED0200005F0F6FB011C381CF9
:1003600005F0D1FB8721C90505F0E7FB05F014FC7A
:10037000C3B21B0224041C430294084C320002AB9B
:100380002900200006F0ECF90123AB40226813435A
:10039000236007B0F0BDC046002B011000003050B4
:1003A000302B0020582C0020FFFFFF9F0030002042
:1003B000000006400024F44A10B500280ED00120A9
:1003C00002F016FCFF210B4B0B4A1B680904043397
:1003D0009B001920995002F00BFC10BD012002F087
:1003E00007FCFF21034B044A1B68090604339B00EA
:1003F0009950F2E7582C002000003050F0B507006B
:10040000C646FA2000B5400002F0F2FB002F20DDC6
:10041000FF231B04002498460F4E104D012002F0CC
:10042000E7FB4246FA203368400004339B005A51F0
:1004300002F0DEFB012002F0DBFB0022FA20336831
:10044000400004339B005A51013402F0D1FBA74213
:10045000E4D180BCB846F0BD582C002000003050DC
:1004600070B5012002F0C4FBFF22094D094C2B6836
:10047000120204339B001A51642002F0B9FB0120E0
:1004800002F0B6FB00222B6804339B001A5170BDAA
:10049000582C0020000030507047C0467047C046BE
:1004A00010B590B005F086FEFFF718FF08F078FC55
:1004B00008F050F9174C01200021404206F012FCD0
:1004C000002007F08BF9002815D102F07DFC0029EF
:1004D0000CD0FA220023920004F0C8FF0E4B984281
:1004E000E9D92378002BE6D101F060F9FA218900DF
:1004F00004F07EFFF2E769464022002007F07CF915
:1005000069460200002007F0EBF9002007F0ACF983
:10051000DBE7C046902C0020B80B00000122054B01
:1005200010B500201A7001F0FBFB002801D010F07C
:10053000BFF810BD902C00207047C0467047C046E1
:100540007047C0467047C0467047C04670B5C8B0D7
:1005500000281BD011F02CFF041E17D011F028FF2B
:100560002E21050011F0F4FE00280FD0114911F0E2
:10057000C5FF00280AD11049280011F0FFFE06002F
:10058000280012F007F80438864202D0002048B054
:1005900070BD694620000EF0EBFE0028F6D18020E9
:1005A000009B80025840019B184343425841C0B20F
:1005B000EDE7C04640370110102B0110F0B546465C
:1005C000D6464F46C0B505000E00DEB000295AD011
:1005D000FF2849D8364B6846190099460EF004FEAC
:1005E000002841D100231027984616AC05E0A37ED1
:1005F000002B08D0237B1F423DD0210068460EF01F
:1006000071FE0028F3D045452ED2434658014044A0
:1006100005F0FCFA071E49D0494668460EF0E4FD95
:10062000002810D11023BA46994606E0A37E002B7D
:1006300009D04A46237B1A4227D0210068460EF093
:1006400051FE0028F2D021221A4B4146380011F009
:1006500071F8690149197918300011F093FF3800D9
:1006600005F012FB002000E002205EB0E0BCBA46BC
:10067000B146A846F0BD72306844FFF767FF431EDD
:1006800098418044B9E70420EFE772236B441800D7
:10069000FFF75CFF0028D0D072236B44190050464E
:1006A00011F070FF21239C46E244C6E70120DCE7FD
:1006B00018340110FD240110B0B5124C0122A544DC
:1006C00000AF380010490DF029FA0024002805D0A9
:1006D0002000BD4698239B009D44B0BD6D469AB056
:1006E0003A00642168460EF079FE002805D00A22FF
:1006F0000021684611F012F8040038000EF09CFA50
:10070000AD46E5E7A0FDFFFF28370110F0B55746DD
:100710004E464546DE46E0B56A4C0600A54488468E
:1007200000AF002800D178E0002900D175E0664BC9
:1007300008229A4660239B18DC19514620000EF0CF
:1007400053FD00284AD0002300259946280005F0D3
:100750005DFA8346002800D1B2E0082308229B18E6
:100760005146D8190EF040FD002815D15B467B603C
:1007700010239A4607E0A37E002B0DD05246237B20
:100780001A4200D188E0082308229B182100D819BA
:100790000EF0A8FD0028EED04C4B212249465846C9
:1007A00010F0C8FF4B46002B0AD000245B463000F7
:1007B000191911F0A3FE213400282BD1A5422ED8FF
:1007C000584605F061FA0320BD46FB239B009D447B
:1007D000F0BCBB46B246A946A046F0BD00230822A5
:1007E00099468133FF339B18DD19793BFF3B9B46CC
:1007F00006E0AB7E002B09D05A462B7B1A4240D034
:10080000290020000EF06EFD0028F2D04B465D015D
:100810004D449BE7A542C9D8D2E70420D4E7C023C2
:1008200008305B001B180A222949D8190DF076F907
:10083000002809D021004046594411F0A3FE584633
:1008400005F022FA0020BFE76D4621219AB0200072
:1008500004F0A6FD1F490200684604F001FDC02611
:10086000020008200C23760030186946FB18C019D6
:100870000DF0B0FE0823F318D8190EF0DDF9AD46DF
:10088000D8E7CD2308225B009B18D819FFF75EFE3E
:10089000431E98418144B3E77A2308229B18D81954
:1008A000FFF754FE002800D16DE708227A239B1839
:1008B000D919786811F066FE7B6821337B6062E7A6
:1008C000012081E714FCFFFF18340110FD24011002
:1008D000283701101C2B0110F0B557464E464546EF
:1008E000DE46E0B56D4C0600A544884600AF002802
:1008F00000D18CE0002900D189E0694B08229A469A
:1009000060239B18DC19514620000EF06DFC00237B
:10091000002859D09B469946584605F077F9051EA0
:1009200000D1B8E0082308229B185146D8190EF0D0
:100930005BFC002814D110237D609A4607E0A37E5B
:10094000002B0DD05246237B1A4200D18FE00823A2
:1009500008229B182100D8190EF0C4FC0028EED004
:10096000504B21224946280010F0E4FE4B46002B54
:100970004FD02123212499466442A9444B4630009C
:10098000191911F0BBFD00283AD1002C38DBC02327
:1009900008305B001B180A224349D8190DF0BEF835
:1009A00000283BD02919404611F0ECFD280005F045
:1009B0006BF90020BD46FB239B009D44F0BCBB4669
:1009C000B246A946A046F0BD082299468133FF33BE
:1009D0009B18DD19793BFF3B9B4606E0AB7E002B65
:1009E00009D05A462B7B1A4236D0290020000EF03F
:1009F00079FC0028F2D04B465B014B449B468BE7C9
:100A0000230042342133A34503D91C00B6E7042058
:100A1000D0E7280005F038F90320CBE7E94621218B
:100A20009AB0200004F0BCFC20490200684604F0A3
:100A300017FC0200C02008260C23400080196946DC
:100A4000FB18C0190DF0C6FDC02040008319D8194D
:100A50000EF0F2F8CD46A5E7CD2308225B009B18E7
:100A6000D819FFF773FD431E98418144BDE77A23EF
:100A700008229B18D819FFF769FD002800D166E706
:100A800008227A239B18D919786811F07BFD7B68BE
:100A900021337B605BE701208CE7C04614FCFFFF3D
:100AA00018340110FD240110283701101C2B0110EF
:100AB000F0B5C64600B5884C8046A54400AF002876
:100AC00000D1B1E00025854E2B0032002121381DD8
:100AD00004F0DCFB28230622391DF8180DF01EF85F
:100AE00001350400EDB20828EED04046391D11F062
:100AF00049FD002C00D095E0A226794BB600BA192A
:100B00001380784B7D220021F8183C6005F0D4F862
:100B10000E232820BA197F341355B9193B008022BF
:100B200038180DF057FD00286FD13B68802B6CD131
:100B3000A223A0269B00FA181660A3229200BA18DE
:100B40001060A4220123684892005B42BA18138007
:100B500000217522381805F0AFF8A2239B00FB187E
:100B60001E550F24A221282089003B0080227918DD
:100B700038180DF02FFD002847D13B68802B44D159
:100B8000013C002CEED1A226B600813BBA191360BD
:100B9000A3229200BA181460A4229200BA181380FB
:100BA000514B7522F818002105F086F87F23BA19F9
:100BB000D4541434A221282089003B0080227918C3
:100BC00038180DF007FD00281FD13B68802B1CD181
:100BD000013C002CEED1A2239B0080220021F818BA
:100BE00005F06AF81B3405E03B68802B0DD1013C11
:100BF000002C1BD0A221282089003B0080227918DC
:100C000038180DF0E7FC0028EED02823F8180EF075
:100C100013F807242000BD469D23DB009D4480BCC3
:100C2000B846F0BD0624F5E70424F3E7A2242C4BD4
:100C3000A4003A1913802B4B7D220021F81805F0EF
:100C40003BF87F230E2228203919CA5438183B005C
:100C500072320DF0BFFC0028D7D13B68802BD4D175
:100C6000381980220021393405F026F8FF3405E0D8
:100C70003B68802BC9D1013C002C0BD0A22128203D
:100C800089003B008022791838180DF0A3FC002859
:100C9000EED0BAE7583BF8180DF0CEFFA2239B0028
:100CA0000A221249F8180CF039FF0028B2D16E461A
:100CB0009AB06A1E68460E49A22504F0D1FAAD002A
:100CC000020069463B0078190DF084FC78190DF09C
:100CD000B3FFB5469EE7C04618FBFFFF202B01106F
:100CE0004D4300008A0200009202000028370110E4
:100CF0001C2B011070B500210D2001F0B7F9012265
:100D0000274B10001C68274BA0401D68264B274E20
:100D100019681300AB408A401843FF2310430001B9
:100D200003401F20B446224A1360224B1A68630016
:100D30001B19DB009C19024022601F4A14686A00DC
:100D40005219D200951904402C601C4C24680440B0
:100D500048004018C000604404601948802484465C
:100D600080206344624440010343024324061C6024
:100D700014481C601460146005F03EFD124805F034
:100D80000DFAFFF76DFBFA20800001F031FF0F48EC
:100D900005F066F801210D2001F068F970BDC0462C
:100DA0004C2C0020502C0020542C0020D800205027
:100DB00000202050242B0020282B00202C2B00204A
:100DC000D000205000002050282B0110442B01108F
:100DD000F0B54E464546DE465746E0B5AA4EAB4B0B
:100DE00030681978984603000124C94310339C40A9
:100DF000A74AC3B0C9B253681C42FCD1A44B8000BF
:100E00009A4682445346A34F1961396801250B0065
:100E100008339D409E4A53681D42FCD19C4B89007B
:100E20009B468B445B461B6A1B0E522B00D13BE159
:100E30006FD9532B00D1D7E0572B63D1964B1800B5
:100E4000019311F055FE34680122230010339A40BB
:100E50008F494B681A42FCD18D4B38689C46010083
:100E6000A523A400644423610831A43B8B4065465C
:100E700069680B42FCD1864980008C466546604417
:100E8000016A69680A42FCD1A221814D2161696829
:100E90000B42FCD1016A7E4D69680A42FCD1FF21F8
:100EA0007B4D216169680B42FCD1016A090E0D027C
:100EB000AC46FF2569408946754D69680A42FCD1F8
:100EC0004A46734922614A681342FCD16546046A66
:100ED00002AB240E2543290040461D80994600F0B0
:100EE00013FE002800D0B6E134680122230010333D
:100EF0009A40674910004B6818401A42FAD10434EE
:100F0000A400605043B0F0BCBB46B246A946A04620
:100F1000F0BD202B3DD0212BF4D15D4A53682342F4
:100F2000FCD15246FF231361594A53682B42FCD12E
:100F30005B4680221E6A02AB002118005200360E6A
:100F4000994604F0B9FE002E00D12DE24846002259
:100F500057464F4B4E44D243D1B25A682242FCD13D
:100F600039615A682A42FCD15A46126A120E02703E
:100F700001308642EFD1D243BA46D2B244494B68DF
:100F80002342FCD1534649461A61444805F006F90C
:100F9000B8E73F4A53682342FCD15246FF2313610E
:100FA0003B4A53682B42FCD15B46394A1B6A536863
:100FB0002342FCD15246FF231361354A53682B422A
:100FC000FCD15B46324A1B6A53682342FCD152462D
:100FD000D82313612E4A53682B42FCD15B4630481C
:100FE0001B6A04F03DFF8DE7294A53682342FCD178
:100FF0005246A5231361264A53682B42FCD15B4617
:10100000234A1B6A53682342FCD15246A223136130
:101010001F4A53682B42FCD15B461D4A1B6A53682A
:101020002342FCD15246FF231361194A53682342DD
:10103000FCD15246A3231361154A53682B42FCD1BD
:101040005B46134A1B6A53682342FCD15246A223D3
:1010500013610F4A53682B42FCD15B465746114837
:101060001B6A0B4B061D0178C943C9B25A6822425C
:10107000FCD139615A682A42FCD15A460130126AC1
:101080008642F0D13EE7C046542C0020F02A0020D2
:10109000000020504C2C0020782C0020682B0110E0
:1010A0004C2B011048370110C04A53682342FCD131
:1010B0005246A5231361BD4A53682B42FCD15B46BF
:1010C000BA4A1B6A53682342FCD15246A2231361D9
:1010D000B64A53682B42FCD15B46B44A1B6A53683C
:1010E0002342FCD15246FF231361B04A53682B427E
:1010F000FCD15B46FF201B6AAC4A1B0E190258400C
:1011000053682342FCD15346A84A186153682B42C6
:10111000FCD15B461B6AA54A1B0E194389465368DE
:101120002342FCD15246A3231361A04A53682B42A9
:10113000FCD15B469D4A1B6A53682342FCD1524650
:10114000A2231361994A53682B42FCD15B4649465E
:1011500040461B6A00F0D8FC002800D107E14B464E
:1011600030681C0A03000122FF2510339A408F4982
:1011700065404B681A42FCD18C4B80009C468444ED
:1011800063461D613D680123290008318B40874873
:1011900041680B42FCD18549AD008A46554448461A
:1011A000296AFF2181438A46804841680A42FCD16E
:1011B0005146624611617D494A681342FCD14B4653
:1011C000494640465C402B6A00F0A4FC012133688C
:1011D0000D001A003F68103295403A0008329140E5
:1011E000802290469A00714BBF0099469C464F441E
:1011F00094443A00804447469046E4B20678F64369
:10120000F6B25A681542FCD1624616615A6811421C
:10121000FCD14246126A0278013054408742EDD137
:10122000E4434746614AE4B253682B42FCD163462B
:101230005E4A1C6153680B42FCD13B6A5B4A5368AF
:101240002B42FCD16246B8231361584A53680B42C3
:10125000FCD13B6A56E62B0A5D404B464046198856
:1012600000F058FC8023844663449B460123E4B28B
:1012700022009A464D4BEDB2D2433168D4B20A00F7
:101280008C465146103291405A681142FCD1624658
:10129000514604329200D4503C680834A1405A6848
:1012A0001142FCD1A200D258120E027001305540FA
:1012B0008345E1D13068D4430300012210339A40C2
:1012C0003A49E4B24B681A42FCD1384B80009C4644
:1012D0008444634638681C610100012308318B4057
:1012E000324C61680B42FCD1304980008A46504440
:1012F000046A210E8A462D4C61680A42FCD164467C
:10130000A3212161294C61680B42FCD1016A274C61
:1013100061680A42FCD16146A2220A6123494A68F7
:101320001342FCD1036A404600F0FCFB4B461B888D
:101330003F2B2BD133680122190010318A405545CB
:1013400029D01A4841680A42FCD1B12204339B00DB
:101350001A50012238681549083082404B681A42F9
:10136000FCD180004358019811F05AFBCAE530685F
:101370000122030010339A400C4914004B681C40B2
:101380001A42FAD1043080004450BBE5494608486F
:1013900002F014F8CEE7054948680242FCD1B822B1
:1013A00004339B005A50D4E7FF22E7E500002050A9
:1013B000F82A0020294B0122186810B503000833D1
:1013C0009A4027494B681A42FCD1254B80009C4625
:1013D0006044036A1B0E422B32D161464B681342B4
:1013E000FCD1204A036A944680221F4B52011868A0
:1013F0001B4943001B18DB00634413438022120681
:101400001A601A6002000123083293404A681342AE
:10141000FCD1134A8000944611006044046A240EF3
:101420004A681342FCD1036A104A1B0E1B02234375
:1014300093420AD00E4A93420BD00E4A934200D0F8
:1014400010BD01220C4B1A70FAE701220B4B1A70E7
:10145000F6E701220A4B1A70F2E7C0464C2C002036
:1014600000002050D0002050502C0020B6FF00007B
:10147000E6FF0000F6EF00008C2C00208E2C0020F0
:101480008D2C002070B501250A4E0B4C2A003368C4
:1014900008339A40990063681A42FCD10B591B0E1D
:1014A000012B04D0812BF6D1FFF792FCEEE7FFF77A
:1014B00081FFEBE74C2C002000002050D023F0B53A
:1014C0002022DE4657464E4645461B06E0B59A6248
:1014D000103A9A62083A9A62043A9A628022920218
:1014E0008BB09A6200210022052000F08BFC0022C4
:1014F0000021042000F086FC002200210320904CF3
:1015000000F080FC00220021022000F07BFC002281
:101510000021112000F076FC0121200004F0E2FF00
:10152000884E01213060200004F0DCFF864B012151
:10153000186020009B4604F0D5FF844B8449186056
:101540002000994604F0ECFF824D8349286020007A
:1015500004F0E6FF814B8249186020009A4604F0AF
:10156000DFFF2B6880229846F82352025B0202922A
:101570000393C02300257B4F1B03386002A9102270
:1015800006A836680493059504F09CFB41468B1C25
:101590000A1D1203DB01134306A9102202A80793B8
:1015A00004F090FBC0239B0231002000059306222B
:1015B0000123009505F080F8310020000123072267
:1015C000009505F079F831002000012308220095EC
:1015D00005F072F8049B644964480B40C82103433A
:1015E0008903424620000493029102AB310005F0CA
:1015F000B7F853461B6880229846F82352025B02D4
:1016000002920393C0235E461B0302A9102206A880
:1016100036680493059504F055FB4246531C03328B
:101620001203DB01134306A9102202A8079304F05A
:1016300049FBA0239B0231002000059305220123D2
:10164000009505F039F831002000012307220095AC
:1016500005F032F83100200001230822009505F042
:101660002BF8C821049B404A40481340034302AA78
:10167000890320000493029113003100424605F0D3
:101680006FF84A46802316683A685B0290460693D4
:10169000931C08321203DB011343354A3100134017
:1016A0008022920513430793C0231B030893314BF9
:1016B000200009930022202304F0AAFF0123052221
:1016C00031002000009504F0F7FF0621052000F00E
:1016D00081FB80233100200000229B0004F098FF52
:1016E0000123092231002000009504F0E5FF0621C6
:1016F000092000F06FFB3100200001230722009534
:1017000004F0DAFF3100200001230822009504F0E4
:10171000D3FFC821089A184B89031A40174B06912A
:101720001343089342463100200006AB05F018F839
:101730000BB0F0BCBB46B246A946A046F0BDC046C1
:10174000000020504C2C0020502C0020542C002055
:1017500078370110242B002068370110282B002037
:101760004C3701102C2B0020FFFF0A3E0000858023
:10177000FFFFFF9FA5241024FFFFF50100000A5082
:1017800030B583B06B460C009D1D290001F050FE62
:1017900022002988044800F0CDF9002801D103B0C7
:1017A00030BDFEF72BFEFAE7F02A0020F0B5DE464A
:1017B0004E4657464546E0B5A84B95B018009946A9
:1017C00000F004FF00F034FC8022A54C030002214D
:1017D000D200200001F0E0FD002000F0A1FA01227B
:1017E000A04938300CF0BAF8002803D00120FEF7E9
:1017F00005FEFBE79C4B1800984600F047F9051ED4
:1018000007D02800FEF7FAFDFA20C00001F0F0F939
:10181000F7E7FEF751FF02A9FEF7D0FE002805D03A
:10182000280002A9FEF7CAFE051E0DD1404602A9F6
:1018300000F03CF9051E16D02800FEF7DFFDFA2067
:10184000C00001F0D5F9F7E72800FEF7D7FDFA2030
:10185000800001F0CDF92800FEF7D0FDFA208000CD
:1018600001F0C6F9F0E7814804F098FCFFF726FE86
:101870007F4E300004F0F4FA01220821032000F02A
:10188000F3FA0D207B4900F017FC01210D2000F038
:10189000EDFB0121052000F0C7FA0321052000F02F
:1018A000D3FA754804F07AFC744804F0EFFD300078
:1018B00004F0D6FA724B734F9A466B469E1D724BDC
:1018C0009B462268EFF3108172B61368002BFCD0A0
:1018D000BFF35F8F238962899B1A02D5E2890132A7
:1018E0009B182268BFF35F8F156081F31088002B6F
:1018F00062D00120FEF760FD200002A9FFF740FF43
:1019000053461A783B78002B11D0002A07D10BA937
:1019100002A8FEF7FBFE002858D0FEF7BDFD534697
:1019200022683D701D70EFF3108172B6CDE7002A7A
:1019300046D15B461B78002BC3D0484611F0D8F83F
:101940000120FEF739FD03E0200002A9FFF718FF90
:101950002268EFF3108172B61368002BFCD0BFF33E
:101960005F8F238962899B1A02D5E2890132D318DD
:101970002268BFF35F8F156081F31088002BE3D1DD
:101980000020FEF719FD0BA8FFF792F8002862D19E
:10199000FEF784FD0BA902A810F0F4FD404602A951
:1019A00000F084F8002856D1FFF7A4F95B464846BA
:1019B0001D7011F035F884E70020FEF7FDFC9FE76D
:1019C0000BA902A8FEF788FF0028A6D1484611F00F
:1019D0008FF80120FEF7F0FC2268EFF3108172B659
:1019E0001368002BFCD0BFF35F8F238962899B1A99
:1019F00002D5E28901329B182268BFF35F8F156020
:101A000081F31088002B0DD03100200001F010FD73
:101A10004046318802AA00F08DF80028DCD0FEF79D
:101A2000EDFCD9E70020FEF7C7FC0BA902A810F0D7
:101A3000A9FD404602A900F039F8002808D1FFF7B7
:101A400059F953463D7048461D7010F0E9FF38E7DC
:101A5000FEF7D4FCF3E7FEF7D1FCA5E7782C0020D5
:101A6000F82A002018340110F02A0020782B0110E9
:101A7000442B0110E90100208C2B0110851400106B
:101A80008E2C00208D2C00208C2C002010B5041EE4
:101A90000AD0082303708020800204F0B7F8606049
:101AA000002801D0002010BD0520FCE730B5144C03
:101AB000A544041E22D008230122037002A80CF0C2
:101AC0002DF80125002804D028009B239B009D446D
:101AD00030BD8022616801AB920202A80CF0E0FBED
:101AE0000335002806D1074B019D9C4665446B1EBB
:101AF0009D416D0002A80DF09FF8E5E70525E3E79D
:101B000094FDFFFF0000FEFF8020C0008142804165
:101B100040427047002803D04068C9014018704710
:101B20000020FCE7002803D00822037893430370C9
:101B30007047C04670B5154C0600A54402A80C00BD
:101B4000110003220BF0EAFF0125002804D0280031
:101B50009A239B009D4470BDE4012200002302A84B
:101B60000DF0A6F871688022091901AB02A80CF0EB
:101B700031FD0235002804D1019D803D6B1E9D4141
:101B8000AD0002A80DF058F8E1E7C04698FDFFFF50
:101B9000F0B5C64600B588B0884617001E0000F0B4
:101BA000BFF800281FD06946114B04AD1A68114CCC
:101BB00002929A888A819B798B732B0007CC07C38A
:101BC000227802A91A700C4B06224046019304F0B9
:101BD00079F80C222900380004F074F80322300050
:101BE00001A904F06FF808B080BCB846F0BDC0464B
:101BF000A82B0110B02B0110312E300010B50400BD
:101C000000F08EF800280AD0C3690120002B00D113
:101C100010BD00233A220221200006F0EDF800203A
:101C2000F6E7C04670B50D00140000F079F8002802
:101C300004D0036A2B6080239B00238070BDC046C4
:101C40000120704770B582B00E0015001C0000F036
:101C500067F8002818D0436A002B12D08023069A18
:101C60009B009A4210D1002D0ED101233200009327
:101C7000210000230EF0F2FA002805D1069802B0E8
:101C800070BD036AB342E9D801204042F7E7C0467D
:101C900010B500F045F8431E9841C0B210BDC046D3
:101CA00070B582B00E0015001C0000F039F8002855
:101CB00018D0436A002B12D08023069A9B009A42C8
:101CC00010D1002D0ED101233200009321000023FA
:101CD0000EF0DAFB002805D1069802B070BD036A49
:101CE000B342E9D801204042F7E7C04610B50B786F
:101CF000040000201E2B00D110BD0023202205214E
:101D0000200006F079F801204042F5E710B50248BE
:101D100010F0A6FE10BDC046401400200120704700
:101D2000012807D8830018180301C018024BC0000F
:101D3000C01870470020FCE7981100200120704770
:101D4000012803D8024B8001C01870470020FCE72F
:101D50004014002000487047F437011000487047D5
:101D60009037011070B5002822D0052829D8164BCD
:101D70008000C558280010F00DFCC0B2041C1F28BC
:101D800014D8C026E4B2631CDBB25B00B6001E436D
:101D9000002808D000230D4AE95C01331180D9B234
:101DA00002328C42F8D80A48068070BD1F24E8E74A
:101DB000C126054B02220548196803F083FFB600CF
:101DC000F1E70020F1E7C0468014002092220020B5
:101DD00090220020094A10B59446402483006344B1
:101DE0001A68C000624080341440802252011343BC
:101DF0001C60034B9C466044416010BD04C0014020
:101E000000400140074B80009C4660440368C900C5
:101E100092000A435A400C231A4080235B0103437B
:101E20001A60704704C00140064B80009C46604425
:101E300003684B400121194080235B010343196073
:101E40007047C04604C00140064B80009C46604479
:101E5000036809015940802330225B010A40034393
:101E60001A60704704C00140D0231B061B6830B5C0
:101E70000500584243412F205B4283430D48EC0844
:101E80008446072028408000814020000A4D3C30D5
:101E900063448000A40041511B19002A04D0802211
:101EA00092011343196030BDC0229201134319609F
:101EB000F9E7C04630410140004001400123D022F3
:101EC0008340120693629361094A4021944683003D
:101ED00063441A68C0004A40803111408022520198
:101EE00013431960034B9C460523604443607047CD
:101EF00004C0014000400140024B18688007C00F39
:101F00007047C04600C00640EFF3108072B6034A27
:101F10001368002BFCD0BFF35F8F70472C0100D0FB
:101F2000BFF35F8F0022024B1A6080F31088704766
:101F30002C0100D070B5EFF3108C72B60D4D2B68EC
:101F4000002BFCD0BFF35F8F0724CB08C618C05C02
:101F500001230C40A3401C000440034207D1184356
:101F60003070BFF35F8F2C608CF3108870BD100051
:101F700001F0CEFD2C0100D0F8B54746CE4688468C
:101F800080B5EFF3108C72B6214D2C68002CFCD07C
:101F9000BFF35F8F9A422CD8D4080727055D061936
:101FA00001241740BC402C421FD00721012789463D
:101FB00009E0D408055D06194C4639001440A140DB
:101FC0000C00294211D001329342F2D2012040424A
:101FD000BFF35F8F00220E4B1A608CF3108800282D
:101FE0000FDBC0BCB946B046F8BD254310003570C4
:101FF000EEE7BFF35F8F00232B608CF31088012086
:1020000040424346002BECD0089801F081FDC046C9
:102010002C0100D00021044B044ABFF35F8F02C3A0
:102020009342FAD17047C046000100D0800100D031
:10203000044A1078431CDBB2172B00D9102313700D
:102040007047C0469814002010B5064B064C82B06D
:102050000100009318221F232000FFF78DFF02B01C
:1020600010BDC046102C011094260020012383408F
:10207000002904D0034A1360034A13607047034ADF
:102080001360FBE780E200E000E100E080E100E0B7
:1020900001228240034B1B6813405A1E9341D8B261
:1020A0007047C04600E100E0024B10309B688000A2
:1020B000C058704700ED00E070B50D00EFF31086DA
:1020C00072B60F4A1368002BFCD0BFF35F8F0D4B25
:1020D00010309B6884001B590B4A934203D09D42E9
:1020E00001D001F02DFD074B9B681D51BFF35F8FA1
:1020F000BFF35F8F0022024B1A6086F3108870BD19
:10210000240100D000ED00E0CD010010F0B55746ED
:102110004E46DE464546E0B585B006000091170004
:10212000EFF3108B72B66A4A1368002BFCD0BFF332
:102130005F8F0025674B5D579A46002D00DAA9E0B6
:102140006B00654C01935B199B009846A146C14406
:102150004B4652469B7910361370604BB6009B6815
:1021600099590B1B2F2B33D95D4B994200D0ACE012
:10217000019B42469C465B4B6544AD0063535A4B02
:102180000232A218043B9B1A1B05584A5B0D6519C5
:1021900013436B80564B0121AB80FF23AB71009B37
:1021A000EF71AB604B460B4319004C4B9B68995148
:1021B000BFF35F8FBFF35F8F0022454B1A608BF335
:1021C000108805B0F0BCBB46B246A946A046F0BD9B
:1021D00001200A008243D3798C46BB4231D8454660
:1021E000130044491B1B5B415943090D3D4B63538D
:1021F0003D4B02356519043B5B1B1B053B4D5B0DDD
:102200002B43AA464D466B800425AC465546E04418
:10221000131F44441B1B1B055B0D1D434B4699714B
:1022200000999D8099604946DF71334B01431360EB
:10223000BBE75800C01880002018C179B9422FD9D7
:1022400002000623D356002BF3DA02932B4B614690
:102250000393131D9A4604235B429C46E144504677
:102260004B461B1A1B055B0D9C46204B95719846EF
:102270006346404603439380019B5A199200039B97
:10228000A418A380029B1C4AA371009B2260E771E3
:10229000A3608AE701F054FC002553465D574FE7E1
:1022A000908802934005131D9A46031561469C468B
:1022B0004046D444634604302018181AE023000531
:1022C000400D1B0218430390C5E701F039FC4FE7AE
:1022D000240100D08B2C00209C14002000ED00E095
:1022E000CD01001000A1FFFFCC14002000E0FFFF93
:1022F00001BDFFFFAAAA00000148804701BD000000
:10230000F0B5DE4657464E464546E0B50C0083B074
:10231000EFF3108872B65D4A1368002BFCD0BFF350
:102320005F8F5B4B5B499A68030010339F00D55960
:102330008D4239D0A5424AD0574EAA1B2F2A33D8F6
:1023400001229246824091464846544A1268104003
:1023500001904846524A1060BFF35F8FEFF3058249
:102360009346002A35D0934201D001F0E9FB2A00C0
:1023700053469A439068844208D175E04B005B183D
:102380009B00F3189868A04234D01A0006215156D9
:102390000029F3DA844253D0019B002B26D04A4611
:1023A000404B1A603D4B1A60394B9B68DD51BFF3BF
:1023B0005F8FBFF35F8F0022344B1A6088F3108861
:1023C00003B0F0BCBB46B246A946A046F0BD0D0026
:1023D000EAE72A0053469A4390688442D6D1062001
:1023E00010561300002809DA0D0031E04A462C4B44
:1023F0001A60D9E706201856002822DB420011187F
:10240000890074188A46A1689960E179D97106211A
:1024100061569971002925DBA488F11A64052415F9
:1024200054440919E0240905490D240221439980E7
:1024300013181D4A9B001178F31899711070ABE7BF
:1024400013005946002914D1FF3191711749918029
:1024500015490A789A71164A9B1B5B415A43120D23
:102460000A7099E71349E2E7062010561300002886
:10247000C4DA114A1149D21A083A5002400D0143F8
:1024800099800F4952080A43DA8085E7240100D079
:1024900000ED00E0CD0100109C14002000E100E000
:1024A00080E100E080E200E08B2C002001BDFFFF16
:1024B000AAAA000001BD0000D614002000F0FFFF12
:1024C00000F8FFFF70B5EFF3058101240443EFF33B
:1024D000108C72B6214A1368002BFCD0BFF35F8FBB
:1024E0001F4B05001F4AED1A6D416A43120D1E4D28
:1024F0008900AE6852B27658A6421CD006215956C1
:1025000091421CD012215956914222D01E21595677
:10251000914220D02A2159560324914210D0134BC6
:1025200019781A708171BFF35F8F00220B4B1A600C
:102530008CF3108870BDAB680D4C5C50EFE7002445
:102540006100091989005B18FF2199710949998077
:10255000E5E70124F4E70224F2E7C046240100D0B5
:102560009C140020AAAA000000ED00E08B2C0020A3
:10257000CD01001001BDFFFF054B064A1360064A5E
:10258000136053609360D36013615361936170472C
:102590008080808000E400E004E400E070B5040086
:1025A0000E001500FFF744FD0100200000F006F8C2
:1025B000A680E580BFF35F8F70BDC046024B9C468E
:1025C00061448900016070474000003410B5040088
:1025D000FFF72EFD01002000FFF7F0FFFF2323711E
:1025E000BFF35F8F10BDC04610B50400FFF720FD9C
:1025F00001002000FFF7E2FFFF23A380BFF35F8FFE
:1026000010BDC04610B504000120FFF71DFD034BAF
:10261000C3189B002360BFF35F8F10BD40000034E0
:1026200083680B4810B58446614462441201090175
:1026300059189B185C684A680120944201D802D05E
:102640000020C0B210BD1A680B689A42F9D8F7E7AB
:10265000FFFFFF0F0A4B1968EFF3108072B60A688C
:10266000002AFCD0BFF35F8F1B68BFF35F8F00228F
:102670001A6080F3108840BF002000217047C046D8
:10268000482C0020F8B5574645464E46DE46E0B594
:1026900098460CAB1C780DAB1B78070091469A4608
:1026A0000568002C59D1AC7B002C3BD06600296812
:1026B0003619033E89194B78AB73002B00D1EB73AD
:1026C00000238B704B700B702D4BE218BB6812010E
:1026D0009B184A461A6042465A600A9A9A600B9AB8
:1026E000DA6000238B704B700B706B7B9B46002B6A
:1026F00026D022006B685946A86898475B465B0065
:102700005B442A68033B002812D058469619B070E3
:10271000D118D35C002B00D073705B460C706B73C8
:102720005C450ED0F0BCBB46B246A946A046F8BDFB
:10273000D3189C709119925D002A1CD15B460B70D6
:102740006C734A464346387D00F0D2FB051E0AD121
:102750000E9B002BE6D01D70E4E766002968361951
:10276000033E8919B0E75346002BF1D121003868A8
:1027700000F0D6FDECE75A705B460B706C73E0E737
:10278000FFFFFF0FF0B5DE4657464E464546002395
:10279000E0B58BB00893684B8200D45800239B4669
:1027A000099000F011FB02000B006068EFF3108A43
:1027B00072B6564601680029FCD0B246BFF35F8F5F
:1027C00021684F7B8C46002F2ED0A5685B49A94617
:1027D00079180901894449460868496805000E00CE
:1027E000AD1A9E41002E5FDD02000B00099800F03B
:1027F0007FFB0023002299460023069207930023C3
:1028000098466368BFF35F8F5A461A608AF3108850
:102810004346002B12D10028C3D10BB0F0BCBB46FD
:10282000B246A946A046F0BD0023002299460023E7
:1028300006920793002300209846E2E7089B49464A
:1028400018023843C047626805000E00EFF3108A93
:1028500072B61368002BFCD0BFF35F8F002E41DBF4
:102860002B00334302D02369002B56D12368D97B38
:10287000002905D01A68480041185218033A5770C9
:102880009A7B002A00D19F73DF73E268013FD35D1A
:102890000133D3555B4623616368BFF35F8F5A46AC
:1028A0001A608AF310887CE7002E02D1002D00D038
:1028B0009AE70021604600F0B1FC4B461A685B685D
:1028C000069207934B469B6898464B46DB689946B1
:1028D000E368DB19013B1B7808931B020343236168
:1028E00000208EE72369002BC0D0069A079B802129
:1028F000521BB34109068B4202D30122104B5242B4
:102900000021049101310391494601914146200083
:1029100002970091FFF7B6FEBCE700F055FA2A00D7
:10292000330012184B41802109068B42E8D3012263
:10293000034B5242E4E7C046342B0020FFFFFF0F59
:10294000FFFFFF7F10B5144C6368002B04D00A21F1
:102950001248FFF733FE10BD2300114A10212068F2
:1029600000F078FB032000F023FA032000F028FB9E
:1029700003200C4900F076FAFFF75AFB0A4B9C46FD
:1029800003232375D0231B061B6860446375074B24
:1029900080006060DC60DAE7E4140020482C00204E
:1029A000212600108527001040000034342B002021
:1029B000F0B557464E464546DE46E0B585B0019334
:1029C00010AB1B780600039300239A4698460092AA
:1029D0007268EFF3108B72B61368002BFCD0BFF354
:1029E0005F8F3568AC7B002C00D16EE067002B68F0
:1029F0003F19033FDB195A78AA73002A00D1EA7302
:102A0000484AA118B268090152180098019910604B
:102A100051600E9991600F99D16042469A705A7038
:102A20001A706B7B9946002B00D16BE022006B681B
:102A30004946A86898474B465B004B442A68033BCD
:102A4000002856D04846D719B870D118D35C002B4F
:102A500000D07B704B460C706B734C4553D0F368C1
:102A60001B19013B18787368BFF35F8F42461A60E9
:102A70008BF310885346002B08D10002204305B089
:102A8000F0BCBB46B246A946A046F0BD039B002B56
:102A900046D00E9B00200F99984703000B433FD070
:102AA00004000D1E1ADA009A019B121BAB41009222
:102AB000019380221206934204D301231A4C5B42F5
:102AC00000930194039B9A4682E77368BFF35F8F7C
:102AD0001C608BF3108801204042D0E700F074F9AD
:102AE0008022001969411206009001919142E9D3B8
:102AF000E3E7D3189C70D119D25D002A00D05A7038
:102B00004B460B706C73307D009A019B00F0F0F91E
:102B100082460028A3D02100306800F001FC9EE727
:102B20000020ACE7FFFFFF0FFFFFFF7FF0B50400C1
:102B30000D0006267642F717C64636196F4100B5D6
:102B400084B08F4214D811D000F03EF932003B001F
:102B5000121A8B41002B15DC002B3ED020002900DF
:102B600000F070F904B080BCB846F0BD8642EBD9E5
:102B70000026002700F028F932003B00121A8B4192
:102B8000002BE9DD002302930193154B32000093E3
:102B900014483B00FFF70CFF0028DFDB00239846BA
:102BA000BC46114A114F7B6A9C4504D8B96A8E42D3
:102BB000D4D99C45D2D11168EFF3108072B60B685E
:102BC000002BFCD0BFF35F8F1368BFF35F8F4146CC
:102BD000196080F3108820BFE5E7002ABED0D1E756
:102BE00055260010E4140020482C00200040054029
:102BF00070B5060000F0E8F8FA2204000D0000238A
:102C000030000021920002F061FF80230019694129
:102C10001B06994202D3012002494042FFF786FF7A
:102C200070BDC046FFFFFF7FF0B5EFF30583CE46D2
:102C3000474680B505000C0085B0002B12D02A4A0B
:102C40000020536AA34203D3926A0130AA4204D3FC
:102C500005B0C0BCB946B046F0BD1B1B5A1E93411F
:102C6000D8B2F5E7214E02930193214B0200009365
:102C700030000B00FFF79CFE031EE0DD20BF7168F3
:102C8000EFF3108772B60A68002AFCD0BFF35F8F9B
:102C9000DAB29446FF2230681A40417B61450FD07A
:102CA00001688946510088464946904441440339A9
:102CB0008978002904D13269934209D1316107E052
:102CC000F1681B0A8A18013A1278DBB29A4207D0DF
:102CD0007368BFF35F8F00221A6087F31088AEE736
:102CE000614600F01DFBF3E700400540E4140020BE
:102CF00055260010F0B5EFF30582D6464F464646FE
:102D00001000C0B51038EFF3108872B6214C23685C
:102D1000002BFCD0BFF35F8F0123190081401E4DB3
:102D20001F006963AA461D4D29601D4D2E78AC46D3
:102D30003500C5402F402B4215D053465F6A194BD2
:102D40008500EB589F4218D36246174B8E43EB58D1
:102D50001670BFF35F8F0022226088F31088002B6B
:102D600006D0984704E0BFF35F8F276088F3108890
:102D7000E0BCBA46B146A846F0BD0C4B92009C465A
:102D8000624413681360BFF35F8F0023236088F3EE
:102D90001088EDE7280100D0004005403C70054058
:102DA0008F2C00205C2C00207C260020D03F05408A
:102DB00010B5034B01001800024AFFF7BBF810BD25
:102DC000872C00202C2C0110034B596A0A00986AAA
:102DD000596A8A42FAD170470040054070B5040034
:102DE0000D00174A536A1900966A536A8B42FAD14A
:102DF0003000190024184D41AB4216D813D0104BA7
:102E00002A005B6A9D4203D90D494B6A9342FCD369
:102E1000934207D10A4A02E0516A994202D1916A6B
:102E2000A142F9D370BDA642E9D9054B5B6A1C00EB
:102E30005A1CEFD0012201246442E5175242E3E715
:102E400000400540064A536A9942FCD807D1044B1A
:102E500002E05A6A914202D19A6A8242F9D37047DB
:102E60000040054070B504000D00EFF3108672B607
:102E70001A4A1368002BFCD0BFF35F8F002D1BD0C4
:102E80002000FFF711F9164981420AD02000FFF710
:102E900013F901212000FFF7E9F80123A340114AAB
:102EA0001360114BA400E550BFF35F8F00220B4B62
:102EB0001A6086F3108870BD0121A1400A4BA20060
:102EC000D5500A4B20001A788A4305491A70FFF73B
:102ED00017FA00212000FFF7C9F8E5E7280100D024
:102EE000F52C0010386005407C2600208F2C002037
:102EF000F0B54F46D6464646C0B507002B4C616A32
:102F00000D00A66A616AA942FAD18B4208D805D0A1
:102F10000120E0BCBA46B146A846F0BDB242F7D99E
:102F2000EFF3108A72B6224801680029FCD0BFF383
:102F30005F8F0125BD401F491C4C88460978894692
:102F40002943C9B28C46414660460870391D890044
:102F500065630A511849B8004350216A002029428C
:102F600019D0616A0800A66A616A8142FAD18B426F
:102F700019D801D1B24216D8CC450BD00B4B1F2229
:102F80001D625D6301233A4093400C4A136043463F
:102F90004A461A700120BFF35F8F0022044B1A606B
:102FA0008AF31088B5E70020F5E7C04600400540E9
:102FB000280100D08F2C00205C2C002080E200E053
:102FC000EFF3108C72B60A490B68002BFCD0BFF3EC
:102FD0005F8F01238340074A0748136202789A43B0
:102FE0000270BFF35F8F00230B608CF31088704773
:102FF000280100D0004005408F2C002070B506004D
:103000000D00140000291DD0002A12D073688068BA
:10301000984762006B0012195B193168033A033B51
:10302000002808D08A189570C818CB5C002B0BD1EB
:103030000470280070BDCB189C7088188A5C002A28
:1030400005D105702000F5E753700470F1E75A7060
:103050000570F7E710B583600023CCB243730133EA
:10306000426004738373C4730068421C012C05D949
:103070000133DBB2137003329C42F9D1FF230B40C2
:103080005A00D318C01800230338437010BDC0463F
:1030900070B505000C1E07D0630001681B19033BC7
:1030A000CB185A78002A01D1200070BD500080183A
:1030B0000338091800204E78487021005870280005
:1030C000FFF79CFF310004002800FFF7E1FF060036
:1030D000002C20D00028E7D0320021006B68A868BF
:1030E00098477200630092191B192968033A033B41
:1030F000002808D08A189470C818CB5C002B00D028
:1031000053700670D0E7CB189E7088188A5C002A2E
:1031100000D05A7004703400C6E7C046F0B5574678
:103120004546DE464E46E0B50D006F0001687F194A
:10313000033F0400C85D83B00192CA19002850D033
:1031400043001B18033BCB185E78B446002E1AD1FF
:10315000019E002E42D0E67B002E04D073009B1906
:10316000CB18033B5D70A37B002B00D1A573E573E7
:1031700000282FD10023537003B0F0BCBB46B246E9
:10318000A946A046F0BD72006244033A8A185178FD
:103190008846002151708946597032000100200094
:1031A000FFF72CFF43468246002B07D05B002168C7
:1031B0004344033BCB185A78002A16D14246514665
:1031C0002000FFF71BFF2168019BCA19002BC2D109
:1031D0000028CFD043001B18033BCB180021997067
:1031E000C8E7019B002BB6D1C4E750008018033814
:1031F0000918487883464846487058704146200070
:10320000FFF7FCFE594680462000FFF741FF41468C
:1032100002002000FFF7F2FE8046CFE7F0B55746E8
:103220004546DE464E46E0B583B00191457B04003D
:103230006F0000687F19033FC15DC219002952D099
:103240004B005B18033BC3185E78B446002E1CD1BC
:10325000019E002E44D0E67B002E04D073009B1903
:10326000C318033B5D70A37B002B00D1A573E573EE
:10327000002931D1002328005370617303B0F0BCE2
:10328000BB46B246A946A046F0BD72006244033A6E
:103290008218507880460020507081465870320065
:1032A0002000FFF7ABFE43468246002B07D05B00B1
:1032B00021684344033BCB185A78002A17D1424671
:1032C00051462000FFF79AFE019B01002068C219B9
:1032D000002BC0D10029CDD04B005B18033BC31895
:1032E00000209870C6E7019B002BB4D1C2E75000C4
:1032F0008018033809184878834648464870587043
:1033000041462000FFF77AFE594680462000FFF72D
:10331000BFFE414602002000FFF770FE8046CEE768
:1033200070B5050000292CD0437B8B422ED04C0079
:1033300000686418033C0419A278002A21D05300C5
:103340009B18033BC25CC6188A4202D11BE0002ACC
:1033500008D053009B18033BC3185A788A42F6D111
:1033600062785A70002301222800A3706370FFF76F
:10337000D5FE697B02002800FFF740FE687301203C
:1033800000E0002070BD63783370EBE70122190084
:10339000FFF7C4FEF2E7C04670B516000D00190035
:1033A0000400FFF70BF92900701C02F04DFC00230C
:1033B000E681A5816060A36070BDC046F8B50400D9
:1033C000002709E0E289934218D12368BFF35F8F99
:1033D0001F6085F3108820BF2268EFF3108572B656
:1033E0001368002BFCD0BFF35F8F20896389C31A59
:1033F000E8D5E689721CD3189E42E6D0A28963689C
:103400005043181802F05EFC002210002389E18965
:1034100001339BB29942504141420B4023812368C2
:10342000BFF35F8F1A6085F3108840BFF8BDC046B8
:1034300070B504000800002108E0002B18D12368B3
:10344000BFF35F8F196085F3108820BF2268EFF308
:10345000108572B61368002BFCD0BFF35F8F6689AE
:1034600023899B1BE9D5E2890132D318002BE6D0D2
:10347000A28961685643891902F024FC00221000D9
:103480006389E18901339BB29942504141420B402B
:1034900063812368BFF35F8F1A6085F3108840BF94
:1034A00070BDC046F8B5CE464746040080B506203C
:1034B0000D0000F021FA061E53D0534B5349E31878
:1034C0005A1E93418022120494465B429B0D504A3F
:1034D0009B05634413604F4A136018008A68904349
:1034E000FBD1494B4C4AE31859424B4180215B00C8
:1034F00049000620995200F0FFF92900C00001F0B0
:1035000077FFC30932D14022012190466162A36254
:10351000266BF30736D427008025E36A00232C3777
:103520006D013D432B600620266300F0E5F941461E
:10353000800001F05DFF236B06009846DB073BD45B
:103540006023E26A5A400E3313402B6043462363E4
:10355000802310229B013B431A60304B23630323DB
:10356000A3643000C0BCB946B046F8BD2C4A9342B3
:103570003FD900232B492C4A6162A362266B9046F7
:10358000F307C8D52200C02330329B011343234ADE
:1035900006201A60656AA36AAD01ED1800F0ACF967
:1035A000224901F025FFAD020100280001F020FFB3
:1035B0000021FFF713FCAEE72200C02330329B014D
:1035C0001343164A06201A60636AA26A9B01994651
:1035D000914400F091F94B4614499B02994601F041
:1035E00007FF0100484601F003FF0021FFF7F6FB4B
:1035F000A6E77F229901884602400132520819004D
:103600009044130082E7C0460080FCBF00C0004029
:1036100000E0004000F000406C2C0020010300009E
:10362000FEFF0000FFFF0000C0FF3F004E0E000045
:1036300010B50C2082B000F0B7F9FEF75DFC002851
:1036400010D08B4B8B488B498B4A1860596098601F
:10365000D960186159619861D961186259625A62DA
:1036600002B010BD854CA06700F0A6F90122844B82
:103670001A60636C012BFCD10322824B1A607F4AD3
:10368000936B012BFCD1013301217F4A7F480093CA
:10369000043300F037F905237D4A009301217D486A
:1036A00000F030F97C4B5A68FF2A02D88022520081
:1036B0005A608022734B6E4C12011A6021690029F6
:1036C00007D0606901F094FE013043001B18033BF2
:1036D000FDD2E022704B714819680A400260022254
:1036E0001968514001320A40042102609A6811426F
:1036F000FCD080216A4A09011160802252005A6080
:10370000684B2361684B5968FF2900D85A6003222F
:1037100001215B4B1A60644A93681942FCD0E02394
:103720001068034061480360126803234A40022185
:1037300013405D4A036093681942FCD080215C4BC2
:103740000901196080215B4B4900516063615A4B4C
:103750005A68FF2A00D859608022584B12011A601B
:10376000E169002907D0606901F042FE01304300A1
:103770001B18033BFDD2E0234F4A11680B40504910
:103780000B6080214F4B090119608021394B4900A2
:103790005160E3614C4B5A68FF2A00D8596080227F
:1037A0004A4B12011A60216A002907D0606901F0B2
:1037B0001FFE013043001B18033BFDD2E023424AA9
:1037C00011680B4042490B608021424B090119608E
:1037D00080235B0053608022264BD20223623E4B43
:1037E0005968914200D25A6080223C4B12011A6003
:1037F000616A002907D0606901F0FAFD01304300D9
:103800001B18033BFDD2E023334A11680B403449B7
:103810000B608021334B090119608023DB02536068
:10382000154B6362304B5A68FF2A02D8802252003F
:103830005A6080222D4B12011A60A169002907D01D
:10384000606901F0D5FD013043001B18033BFDD238
:10385000E023254A11680B4025490B608021254B48
:103860000901196080235B005360124BA361F7E6E6
:10387000F01A0020006CDC021BB700000080004042
:103880003CB0004030B00040002F6859008002403A
:10389000008C864700C002403080004030900040DD
:1038A00030A00040001BB7003C8000403C9000402E
:1038B0003CA00040405973075480004054B0004081
:1038C0005490004054A000406080004060B0004030
:1038D0006090004060A000406C8000406CB00040F0
:1038E0006C9000406CA000404880004048B0004010
:1038F0004890004048A00040014B8000C0587047ED
:10390000F01A0020F8B5040022481E0017000D0030
:1039100001F06EFD0100380001F06AFD069B3604DF
:103920001B031E432368002B22DB1B4B1B49E318A0
:103930005A1E93418022920194465B421B0B184A07
:103940001B0363441360174A13601F008A68974380
:10395000FBD1C022231D92011A4321232560A060C0
:1039600013602368002BFCDA0823E6601360F8BDBF
:103970003F2322681340AB42D7D1A3681B051B0D20
:103980008342D2D1EE22E368D2021340B342CCD1BB
:10399000EDE7C046001BB7000040FDBF00C000407F
:1039A00000E0004000F000408023024A9B000343F7
:1039B000D362704700800540AA23064A1B011360AA
:1039C0002133FF33D3600449044B19605368002B43
:1039D000FCDA70470040024000B0FA00006002408C
:1039E0002C4B2D4A70B51A602C4A2D4B2D491A606C
:1039F00014008B689C43FBD12B4D2C4EB54208D252
:103A0000013E761BB60808CD984723000134B34227
:103A1000F9D1FFF70DFE264A214B1A60214A93681F
:103A2000DB43DB01DD09002BF9D14022214B224C85
:103A3000224E9A675A671A67DA66B44208D2236838
:103A40002000002B20D00834FEF7CEFDB442F6D380
:103A50001B4C1C4EC022B168200002F033F9B46048
:103A6000FEF7D8FAFEF788FDFEF76CFF164C174EEE
:103A7000B44208D2013E361BB60808CC98472B004A
:103A800001359E42F9D170BD0834FEF79FFDB44266
:103A9000D5D3DDE700E00040BFCDFBFEFE7F3C005C
:103AA00000F0004000C00040D41A0020E41A0020BA
:103AB000FFFFFF0100F00140B41A0020D41A0020DB
:103AC0000000002000ED00E0E41A0020EC1A0020C5
:103AD00000BEFDE7094A03001068002805D0084928
:103AE000C3188B4207D81360704706480449C318AF
:103AF00010608B42F7D901204042F5E7E82600200C
:103B000000000420942C002010B5FFF7E1FFC04610
:103B10000FB400B5084883B002F0A2F9049B002B53
:103B200007D005A91800019101F0E2FB034802F05B
:103B300097F90120FFF7CCFF502C0110083101103C
:103B400010B50148FFF7E4FF602C01109A4200D243
:103B5000885470477047C046F8B55746DE464E4613
:103B60004546E0B599460A9B07009A460D9B884654
:103B700093460B9C9B073BD10C9B9C423DD21E1B4A
:103B80000B9415000C005E442A004B4601352100C1
:103B90002020B847B542F7D1A0460B9C002C20D07E
:103BA000454636195346321B013C185D29004B46E9
:103BB000B847002CF6D12B00350098460D9B9B078B
:103BC0000FD55B46EC1A0C9BA3420AD94646984691
:103BD0002A004B46310020200134B84701354445C6
:103BE000F6D32800F0BCBB46B246A946A046F8BDB5
:103BF00016001500002CD3D1E0E71600002CCFD121
:103C00001500EEE7F0B54F464646D646C0B584B03F
:103C100098460EAB1B7894469946129B0D9C109FBC
:103C2000119E9A0725D4002E65D1BC4221D20122D3
:103C30001A409246202C00D1E9E00C9A551E302201
:103C400002E0202C00D17BE001342A55A742F8D8AD
:103C50005246002A0DD0B4420BD20C9A551E302287
:103C6000202C02D171E0202C2DD001342A55B442F1
:103C7000F9D1DA063CD55A052ED4002C28D10F9A5A
:103C8000102A00D1B6E0022A00D1BCE030220C9C00
:103C9000227001244A46002A65D15A0700D499E0CF
:103CA0002B220C9D2A55013403930C9B62460093F2
:103CB000029643460194FFF74FFF04B0E0BCBA46BA
:103CC000B146A846F0BD2024DA06EDD55A0503D446
:103CD000A74266D0B44264D00F9A102A71D0022A4B
:103CE00057D0202CE0D02200013430250C9FBD5449
:103CF000202CD9D0CEE7012215001D40AA461A4239
:103D000036D04A46002A4AD10C321A4247D1BC4228
:103D1000A1D2202C91D1202E17D82024DA06C3D589
:103D20005A051BD4202F01D0202ED5D11F220F9D44
:103D3000102D6FD0022DD8D162250C9FBD54D0E735
:103D40005246002A79D0202EBDD92024DA06ABD5E0
:103D50005A0503D4202FE9D0202EE7D00F9A102A3D
:103D6000A2D12024A0E72D220C9D2A5501349BE7E7
:103D7000BC4200D37DE7202C00D05EE7DA06F0D508
:103D80005A05EED4202F62D0202EEAD134001F2213
:103D9000CDE7202C00D187E722000134CCE7013E9B
:103DA000B5E7621E012CC2D10F9A102A00D06AE733
:103DB0009A063BD558220C9C2270283A6270022445
:103DC00068E79A060ED4202CCBD078220C9D2A5579
:103DD000013486E71A0700D466E720220C9D2A5595
:103DE000013461E7202CBCD058250C9A12191570AB
:103DF000013476E79A0608D558220C9C22703022AE
:103E00006270022446E76032F7E77822F5E7002A7D
:103E100083D1B3E7A21E013C9D0603D478250C9FF5
:103E2000BD5460E758250C9FBD545CE778220C9C7C
:103E30002270483A627002242CE7DA0600D433E795
:103E40005A058BD4202F00D044E71F226FE73C0097
:103E50001F226CE710B5002800D110BD01F0B4FF9F
:103E6000FBE7C0460B0010B5002802D049681B686C
:103E7000984710BDF0B557464E464546DE46E0B57C
:103E800099B08246894690460893229A239B100057
:103E9000190001F05EFD002800D0CDE022982399A2
:103EA0000122D94B524201F04FFD002800D0C3E05F
:103EB000229823990122D54B524201F037FD002868
:103EC00000D0B9E0229823990022002301F02EFDB2
:103ED000002800D0F1E1229E239F8023269ADB0058
:103EE0001A400D92269A1A4201D106232493802368
:103EF000269A1B011A403B0093460996334300D093
:103F0000B3E0002A00D0C2E1002300240A930B94FE
:103F1000002304250993259B0024AB4200D95C1B98
:103F20000223269A1A400C92269A134203D06B421F
:103F30006B415B421C40099B002B07D00A9A0B9BEC
:103F40003000390001F099FC06000F0022982399F7
:103F50000022002301F0EAFC002803D0802109069A
:103F60007B181F00269AAA4B009601971340089EC3
:103F70000493249B039402934246330049465046DF
:103F800000F0AAF90400002D67D02020269A4946A7
:103F9000024013005A4253415B42621C18400A928D
:103FA000330022004530D047099A6F1ED317D4182A
:103FB0005C40D30F9B46002501E0202D13D008AABA
:103FC00094461F23200063440A2101355E1901F045
:103FD0000FFA3031317020000A2101F009FA260071
:103FE0000400092EE9D805230693002304930A331D
:103FF00003935B46089E029310AB0A9A00934946CE
:104000003300504605970195FFF7FCFD0C9A04001C
:10401000002A22D04246851A259AAA421DD9B046C6
:104020005746160022004346494620200135B8472E
:104030000134AE42F6D810E0269B42460493259BFD
:1040400049460393249B50460293229B239C009352
:104050000194089B00F040F90400200019B0F0BC66
:10406000BB46B246A946A046F0BD6A4B78009C46C6
:10407000400D604401F080FC674A684B01F017FC7A
:10408000674A684B01F0F4FB674A3B031B0B1A437A
:1040900004000D0009981100644B002201F0E3FBBD
:1040A000634A644B01F003FC02000B00200029006E
:1040B00001F0DEFB01F078FC099001F05DFC5E4A46
:1040C0005E4B04000D0001F0F2FB00225C4B01F09E
:1040D000CFFB01F069FC5B4A5B4B29000C90200090
:1040E00001F0E5FB04000C980D0001F045FC574A77
:1040F000574B01F0DCFB02000B002000290001F00F
:10410000B2FB04000D0002000B000A940B9501F0B5
:10411000CEFB04000D000A980B9902000B0001F081
:10412000A7FB00220E900F914A4B2000290001F0BE
:10413000A4FB0022484B01F09BFB02000B00200077
:10414000290001F09AFB0022444B01F091FB020090
:104150000B002000290001F090FB0A9A0B9B0D0038
:1041600080210400C905002001F07DFB02000B0046
:104170002000290001F07CFB02000B000E980F9933
:1041800001F07BFB0022284B01F072FB344B0C9CAE
:104190009C4664442305002201F089FB04000D00C5
:1041A00002000B00300039000A940B9501F0BEFBB1
:1041B00000285DD123002A00C625099963318D426C
:1041C000AD4159466D420435002900D1A3E61343A1
:1041D00063D030003900234A234B01F0ADFB0028A7
:1041E00007D0002230003900204B01F09FFB00284F
:1041F00053D1249B002B00D18DE60D9B5A1E934179
:10420000249AD31A249386E6FFFFEF7FFFFFEFFF88
:10421000FFF7FFFF01FCFFFFFB799F501344D33FE3
:10422000B3C8608B288AC63F0000F03F0000F83F0B
:1042300061436F63A787D23F71A379094F930A4007
:104240000000E03F1655B5BBB16B0240EF39FAFEF6
:10425000422EE63F00002C400000244000001840A1
:10426000FF0300002D431CEBE2361A3F80842E41F1
:10427000099B0022013B09932000164B290001F005
:10428000FCFA0A00010003000A910B9294E7002354
:1042900000240A930B9400230993249A099B9A42C1
:1042A00014DDD31A013B24938023269ADB001A43A2
:1042B00000230025269209932DE6802212069446BB
:1042C000229B1E00239B63441F0006E600232493C9
:1042D000EAE7C04600002440F0B54546DE464E46BB
:1042E0005746E0B595B08B46904699461E9A1F9B5F
:1042F0000A9019001000209D01F02BFB002800D02F
:10430000B0E11E981F990122C74B524201F00EFBEB
:10431000002800D037E11E981F990122C34B52425A
:1043200001F012FB002800D0A7E01E981F99002280
:10433000BF4B01F009FB002800D088E01E981F99B0
:104340000022BC4B01F0F2FA002800D07FE01E985A
:104350001F990022002301F0E9FA002800D0FAE0BA
:1043600000230B938023229C229ADB001C401A42DC
:1043700000D102E1092D00D87CE106A98C462C0071
:10438000172200233021093C62440133D154EF1A33
:10439000202B00D132E1A342F7D10022A44B069298
:1043A00007931E981F9901F0FFFA050001F0E4FA47
:1043B00002000B001E981F9901F055FA069A079B00
:1043C00001F075FA0890099101F012FB060001F066
:1043D000CFFA02000B000898099901F044FA002274
:1043E000954B0890099101F0AFFA002800D1D2E076
:1043F0000136300001F0BCFA069A079B01F09CFAE6
:10440000002801D000260135AA46002F00D098E0F0
:10441000280001F0B1FA02000B001E981F9901F06C
:1044200022FA854B002206000F0001F07FFA0CAB48
:104430009A46002845D10022300039007E4B01F019
:1044400083FA00283DD1EB073BD5013539E0229BAB
:1044500042460493219B594603930A981E9B1F9C36
:104460000295009301944B46FFF704FD15B0F0BC94
:10447000BB46B246A946A046F0BD229B5B0767D467
:1044800003226E4B2299019203912199029100938C
:1044900042464B4659460A98FFF75EFBE6E706AAF6
:1044A00094461723280063440A2101341E1900F0A2
:1044B00077FF3031280031700A2100F071FF051EAE
:1044C00076D0202CEBD10323229A1340012B1DD14F
:1044D000219B002B1AD00B9B002B00D0BBE0229A13
:1044E0000C33134200D0B6E0219BA34200D887E0F2
:1044F00006AB9C4617223023624404E02199013424
:1045000013558C4259D0202CF8D12024229B0194A1
:104510000393219B02935346B9E706AA94461723B7
:104520000A216344300001341D1900F061FF30316D
:10453000297030000A21013F00F05AFF092E46D9A8
:104540000600202CE9D155460CAB20249A46B8E74A
:1045500004223B4B96E71E9A1F9B0020002101F08E
:1045600082F901230B938023229C229ADB001E9068
:104570001F911C401A4200D0FCE60022314B062756
:10458000069207930DE7229B0393219B029304233A
:1045900001932D4B7BE7002208980999264B01F0E7
:1045A000C5F9002800D02FE7002E4FD101362BE7A8
:1045B0000323229A1340012B66D0202CA6D00B9BFC
:1045C000002B1FD02D235246135501349EE755462C
:1045D000202CB9D030233A19002F08D0172006A973
:1045E000013409180B55202CAED09442F6D10CABF7
:1045F0009A462E2352461355013462E72024CCE616
:10460000202C83D0229B5B0708D4229B1B0700D45D
:104610007CE7202352461355013477E72B2352467B
:104620001355013472E7C046FFFFEFFFFFFFEF7F36
:1046300065CDCD4165CDCDC10000E03F742C0110AA
:104640006C2C011080842E417C2C0110F30700D4C7
:10465000DAE60136D8E6219B013B2193A34200D93B
:1046600046E7AAE7229B0393219B0293032301932E
:10467000074B0CE7074BEA009B185C681B682F0090
:104680000693079400248CE6219B002B95D022E70B
:10469000782C0110B0390110F0B55746DE464E4671
:1046A0004546E0B5A5B01F002E9B91460D93CA4A22
:1046B000CA4B82468B461A60002900D129E20023AA
:1046C00038789846002800D12BE2C54B44460C931D
:1046D000C44B55464E460E930AE0631C9846220092
:1046E00033005946A84744463878002800D187E06F
:1046F00001372528F1D108239A46043B9946023B0D
:104700009846013B00229C460B943878791C0300A4
:10471000203BDBB2102B03D80C9C9B00E3589F4638
:104720000300303B0B9C0B92092B3AD9002398468F
:104730002A2800D1DDE000239A462E284BD0030022
:10474000683BDBB2122B1ED80E9A9B00D3589F46B3
:1047500063460F001A43D8E743460F001A43D4E7D5
:104760004B460F001A43D0E710230F001A43CCE743
:1047700053460F001A43C8E780235B000B9A7878F2
:104780001A430B9201310F0067284FD82428A4D96F
:104790000300253BDBB2422B9FD893499B00CB58AB
:1047A0009F46002398460B9B47469C4600E00131FC
:1047B000BB00DB195B001F180878303F0300303B5B
:1047C000092BF4D963460B930023B8469A460F0091
:1047D00001312E28B3D180200B9AC00002430B92E6
:1047E00030225242944678780B0084446246092A6B
:1047F00000D8AAE12A2800D1B9E10F0001319EE7D3
:10480000A046AA46B146C84503D301235B424B44A8
:1048100098464B46424659460020D047200025B0D6
:10482000F0BCBB46B246A946A046F0BD01006939BE
:10483000C9B20F2900D950E701238B409C466B4B2E
:10484000994663464A4613400F9362464B461A42C6
:1048500000D068E10A2956D0072900D03DE70D9B1A
:1048600002CB9846002900D092E10B9B10211A0040
:104870008A43100011310843814680201A00C0008D
:104880000240110003421CD114AB9C461F220F238F
:1048900062440D959C4615000F9B0B9402E0202B63
:1048A0000CD0110064460C4020003730092C00D891
:1048B00007380133E8540A090F29F0D80B9C0D9DE5
:1048C0000F934B46082206935346059208320392F3
:1048D000002204930F9B029201931CAB22000093D1
:1048E000594633002800FFF78DF9434604000D9325
:1048F000FAE60D9B04CB9046002A79DB78780D937D
:104900000F00013117E70D9B02CB14930B789C46E7
:1049100018005346002B00D134E1002815D053462F
:10492000013B013399460D940B9C89444A460B0088
:10493000A14601E0934203D05C780133002CF9D109
:104940004A465B1A0D9C0B920F938023DB0099461D
:104950000B9A13400D934B461A4204D00F9B5345BC
:1049600001D953460F93022399460B9A13400B9398
:104970004B46134200D1F5E16346002B00D1D6E14E
:104980000D9B002B00D182E10B1BD14631009A46D2
:104990003B00A1442E005F464D4622009B468946BF
:1049A00009E04B463900541CB0475346185D0028B7
:1049B00000D192E122009542F3D14B465A46A946D6
:1049C000BB46350017001E004C460B9B002B00D049
:1049D000ADE1149B0D9387E699460010EC2A002068
:1049E0001038011054380110A03801104190000017
:1049F0000B9A283802430B924246524278789046EE
:104A00000F000D93013196E678786C2800D15DE1B6
:104A100080230B9A5B001A430B920131B3E680238B
:104A20009B00ABE67878682800D148E180230B9A98
:104A300001311A430B92A6E6672800D1B2E047285D
:104A400000D11AE1452800D11CE10B9A07210492FC
:104A500042460D9B0392073352468B431900029244
:104A60000CC92800009201930D9122003300594691
:104A7000FFF700FA040037E6462800D18DE00B9AD4
:104A80000721049242460D9B0392073352468B4303
:104A9000190002920CC92800009201930D91220086
:104AA00033005946FFF718FC04001DE6631C9846C6
:104AB0002200330059462520A847444614E60D9BA2
:104AC00004330F93631C99460B9B9A0700D40AE1A9
:104AD0000D9B2200187859463300A84743464444AA
:104AE000012B00D86FE1B0462E0025004C46B94698
:104AF0005F4622004346013439002020B047AC42D3
:104B0000F7D12C00BB4635004F4646460F9B0D9310
:104B1000EAE5D64B38789A4600239846002800D01C
:104B2000D3E500246FE66F2842D000D8FDE11023C2
:104B3000782800D19BE00B9A9A430B920A239C465B
:104B4000002314930A330F9338E057460B9AB900A9
:104B5000C919490001330F181878303F0100303966
:104B60000929F4D9BA460B921F00591CE7E50D9BA1
:104B7000B87804CB0237D143C9170A4092460D9347
:104B8000791CDCE5002800D1DFE602235B42C8E6A1
:104B900021200B9A0243914676E620230B9A1A4372
:104BA0000B926CE780230B9A1B011A430B924CE784
:104BB00008239C460023149308330F930B988023FB
:104BC0000200DB001A4011000200184200D080E011
:104BD0000C239A431000802302009B001A400B9282
:104BE000184200D0F1E0802302005B001A40914699
:104BF0000D9A04321492184200D0C3E2430600D545
:104C0000D7E0030600D421E30D9B1B880993002BFA
:104C100000D02DE110339843002900D128E1002372
:104C2000994643460593534604930F9B069003937E
:104C3000002302934B4601931CAB2200009359467C
:104C400033002800FEF7DEFF0400C2E6582809D032
:104C5000622800D0E3E202239C460023149302332F
:104C60000F93ABE720230B9A1A430B92103B9C4601
:104C70000023149310330F93A0E780230B9A1B019A
:104C80001A430B9220230B9A1A430B92DDE60B1B5F
:104C90009A460F9B99463B0037005E469B46220092
:104CA0003B003100A84753460134185D0028F6D177
:104CB0004B460F935B46B3463E001F0085E6C0237C
:104CC0000B9AB8781A430B92F91C5CE5C0239B0041
:104CD000F6E70D239A4310007DE75B463500BB469F
:104CE0004E461F0071E64346012B66D9631E4344BE
:104CF00032002E001D003B00A2465F4691469B46B7
:104D000022004B46013439002020B047AC42F7D195
:104D10005B463500BB464E46A14654461F000D9BE0
:104D20004A461878594633004444A847EEE60F9B9C
:104D3000A146984500D84CE64444E41AB0462E00FB
:104D400025004C46B9465F462200434601343900EF
:104D50002020B047AC42F7D12C00BB4635004F466F
:104D6000464636E60F98804500D873E24346E2187F
:104D7000131A32002E001D003B0091465F469B46F1
:104D80000F9122004B46013439002020B047AC423D
:104D9000F7D15B46BB461F0043460F9901330F9383
:104DA0000B7835009C464E466046002800D0E7E56B
:104DB0000FE60D9B1B78099329E70D9B22001878BD
:104DC00059463300A8474C46A0E60D9AFA3BFF3BF4
:104DD00007329A430133994691444B460D93136829
:104DE000526815921A4306D110329043002209925C
:104DF000002900D083E06122810600D54122D2B291
:104E00000A9214AA91460A9A00210A3A0B92424643
:104E10001792524618925A46B24609911E001F3107
:104E2000149B4944BB4616941A950024674698463D
:104E30008946159D19901B920AE03032D2B24B463A
:104E400001341A55A8454CD0202C4CD006000D003A
:104E50003A0000233000290000F008FBD2B2092AF2
:104E6000EBD90B9B9C466244D2B2E8E7553B00105D
:104E70006123820600D54123DBB20A3B0B934346F4
:104E800014A91F228C46159353466244B2460D94D2
:104E900017974C468046A9461700099D0F9E16930A
:104EA00008E03033DBB201343B55B5420ED3202C41
:104EB0000CD005003100280000F09AFACBB2092985
:104EC000EFD90B9A94466344DBB2ECE7159B40465E
:104ED0009846169B4D465646A1469A460D9C179FEE
:104EE0009FE6B742B0D9179B56469846189B5F4637
:104EF0009A461B9B09949B46169C19981A9D4346FB
:104F00000593534604930F9B06900393002302934B
:104F1000099B01931CAB22000093594633002800E3
:104F2000FEF770FE0400FFF7DFFB10230B9A9A4395
:104F30000F92692800D091E10B9980230A00DB00D1
:104F40001A4010000A00194203D0112118008A43A8
:104F50000F920F9A802311009B0019408C461A4231
:104F60005BD1802311005B00194089460D99043103
:104F70000B911A4200D0B2E013005B0600D4EDE0C2
:104F80000D9B1B781A00D90F0D91002B00D1A3E0C7
:104F9000100014AA944642461F23159252466344B9
:104FA000A846BA464D461494B14604001F00169216
:104FB00001E0202D0FD020000A2100F019FA013560
:104FC0007E193031317020000A2100F011FA2600DC
:104FD0000400092EEDD8159B4E46A9464546984635
:104FE000169B57469A46149C0F9B0693434605937F
:104FF000534604930A2303930D9B02934B4601935C
:105000001CAB22000093594633002800FEF7FAFD3E
:105010000B9B04000D93FFF767FB07220D9B0733E3
:105020009343013294469C4462460D920CCBD90FB7
:105030000B911100194300D19BE0D91713911291E4
:105040005140109113995940119110981199129A49
:10505000139B801A99411090119114AA94464246CC
:105060000023159252469946169232001F3363442C
:10507000A8464E46BA4614941F00109C119D9146B6
:1050800001E0202E10D0200029000A22002300F089
:10509000EDF9013630322B00BA550D002200040024
:1050A000002BEED1092AECD8159B1094119545469A
:1050B00098464B46169AB14657461E009246149C97
:1050C0000F9B069343460593534604930A23039389
:1050D0000B9B02934B461CE7002885D159E70D9B9B
:1050E0001B68DA0F1100002B00D1A6E0DA17981820
:1050F000504014AA91461F2342464B44A8460D94A3
:10510000169704006546B1461F001491159201E000
:10511000202D0FD020000A2100F06AF901357E19F8
:105120003031317020000A2100F062F926000400BD
:10513000092EEDD8159BAC4645469846149B4E4625
:1051400019000D9C169F0F9B0291069343460593F1
:10515000534604930A230393634650E713001B0648
:105160006ED50D9B00229B5ED9175A184A4092B209
:1051700009E7002399460028A2D1002200231092BB
:1051800011936AE70D9B1B689946002B03D11033DE
:105190009843002938D16123820600D54123DBB230
:1051A0000A3B0D9343461693534614A91F228C467F
:1051B00017932B0062444D46B246159418978046CB
:1051C000170099460B9C0F9E08E03033DBB2013488
:1051D0003B55B5420ED3202C0CD0050031002800E1
:1051E00000F006F9CBB20929EFD90D9A9446634431
:1051F000DBB2ECE7169B40469846179B56464D4659
:105200009A460B94189F159C434605935346049366
:105210000F9B06900393002302930B9B0BE50B99C6
:1052200080230A00DB001A4010000A00194200D057
:105230008BE610239A430F928BE6002883D158E720
:105240000D9B1B68D9175A184A409CE60D9B1B689A
:105250000993DCE4030001330F93A5E50B926DE4A1
:105260000EB4012230B584B007AC08CC064D010065
:105270000094280052420394FFF70EFA04B030BCA9
:1052800008BC03B01847C0464D3B00100CB430B505
:1052900085B008AC08CC064D0A0000940100280037
:1052A0000394FFF7F9F905B030BC08BC02B0184709
:1052B0004D3B001010B5054C82B0009313000A005E
:1052C00001002000FFF7E8F902B010BD4D3B0010CF
:1052D00000B585B0039101210290009303481300AB
:1052E0004A4202A9FFF7D8F905B000BD653E00109B
:1052F00010B5094A0300146884B0002C08D00122BC
:1053000000910648524203A9A047012004B010BDF5
:1053100000F0A6FD0020F9E7EC2A0020553E001021
:1053200001480421014B1847101500205D5300105F
:10533000014B9B681847000010150020142310B57E
:105340000100188804331B88984710BD162310B538
:105350000100188802331B88984710BDF8B54746EE
:10536000CE4680B50F1E19D014239946043304008D
:105370000025012698464B461888434621681B881D
:10538000984701C4431E9841013540420640AF4250
:10539000F1D13000C0BCB946B046F8BD0126F8E7EF
:1053A000124A936F9B0815D29066D166002905D0EA
:1053B000FFE7FFE7FFE7516F106F704704B58021EB
:1053C0000906C2175140002800D0C8430DF040FB29
:1053D000002104BDF0B5146E556E576F166FFFF7C0
:1053E000E3FF1466556657671667F0BD000000D0EE
:1053F000114A936F9B0813D210665166002905D09D
:10540000FFE7FFE7FFE7516F106F704704B5002813
:1054100001D00020C0430DF01BFB002104BDC0469D
:10542000F0B5146E556E576F166FFFF7E5FF1466F3
:10543000556657671667F0BD000000D094464A4A8B
:10544000926F9208624601D228E0C046F0B5464EFF
:10545000346E756E776F366F00F020F89446424ACE
:1054600014665566576716676246F0BD94463E4A15
:10547000926F9208624601D254E0C046F0B53A4EAF
:10548000346E756E776F366F00F04CF89446364A7E
:1054900014665566576716676246F0BD002B24DB1D
:1054A00011D000293EDA00B5C943404200D1013194
:1054B00000F038F8C943404200D10131DB43524289
:1054C00000D1013300BD002AEBD1002801D1002911
:1054D00005D00020C90FC90701D1C043410800B55C
:1054E0000DF0A6FA0022002300BD00B500290ADB5A
:1054F000DB43524200D1013300F014F8C94340426B
:1055000000D1013100BDC943404200D10131DB432C
:10551000524200D1013300F005F8DB43524200D182
:10552000013300BD002923D1002B18D1002A0CD053
:10553000BC460D4F38667A6600210023FFE7FFE77F
:10554000FFE77A6F386F67467047002801D0074839
:10555000010000B50DF06CFA0022002300BD02002E
:105560000B00002000217047000000D0FFFFFFFF6C
:10557000002B00D0BFE0130C28D1002AE7D080B464
:10558000114F39667A66FFE7FFE730B4040C7B6F92
:10559000396F1B0423433B667A66FFE7FFE7FFE7AB
:1055A000C04684B27B6F3D6F1B0423433B667A6623
:1055B000FFE7FFE7C04600232C042D0C7A6F386FFD
:1055C00000196941B0BC7047000000D0F0B59446A6
:1055D0000025140E01D112020835140F01D1120159
:1055E0000435940F01D192000235D40F01D152003D
:1055F0000135D40B0134254F7C66254C3C660E0CDE
:1056000093B2FFE7FFE7FFE73C6F6643360C770393
:10561000BE467343DF0B5B04C01AB941130C7343DE
:10562000DB18C91ACE086643360CB64493B27343EE
:105630001F0F1B01C01AB941130C73431F0B1B052D
:10564000C01AB941860D8F023E436643360C092DC0
:1056500024DB520A7243801A7703460A6643360CEB
:1056600016235B1BDE40DF40BF1964466643821B86
:105670007046043506330100D940A840C01900D354
:105680000131A24206D20023F0BD0000000000D08C
:10569000FFFFFFFF121B0130F3D3F1E709277F1B48
:1056A000FE406446A2B27243801A00D20139220C35
:1056B0007243130C1204821A99410B007046043590
:1056C00013370100F940A840801900D30131002BA5
:1056D00002D1A2420AD2F0BD013000D30131121B27
:1056E000FAD2013BF8D1A24200D2F0BD013000D382
:1056F0000131121BF7E7F0B51C0C00D080E00CB4B0
:1057000000251C0A04D11B02160E33431202083571
:105710001C0B04D11B01160F3343120104359C0BE3
:1057200004D19B00960F334392000235DC0B02D16B
:1057300092185B4101351C00971864410134464FB3
:105740007C66464C3C660E0CFFE7FFE7FFE7C04671
:105750003C6F6643360C7703BE4697B27743C01B57
:1057600000D20139C01B00D201399FB27743C91B57
:10577000C91B170C77437E04FF0B801BB941CE0871
:105780006643360C0C2D33DBB644120B1F053A432F
:105790001B0B97B27743C01B00D201399FB27743EE
:1057A000C91B170C77433E043F0C801BB941860D83
:1057B0008F023E43664329277F1BFE400C3D774600
:1057C000AF40BF1930BCA2B2ABB272437343801A70
:1057D0009941220C7243130C1204801A9941020061
:1057E0000B000137001BA941F9D2781E0021F0BD42
:1057F0000C277F1BFE4077467F0BAF40FF19E0E789
:1058000000245D1C07D0144F7D663966FFE7FFE773
:10581000FFE7FFE73C6F95B29EB265436643401BCE
:10582000B141150C1E0C6543664336042F0C3E43F4
:105830002D04401BB141994204D202000B0020000C
:105840000021F0BD01D19042F7D3801A9941013473
:105850009942F2D3F6E70000000000D0FFFFFFFFFF
:1058600048404140484018B4134B5B68019308BD61
:1058700018B4114B1B68019308BD94460F4A926FF0
:10588000920805D2624618B40B4BDB68019308BD41
:105890000A4AF0B5146E556E576F166F6246FFF7E1
:1058A000F2FF064A1466556657671667F0BD18B4CE
:1058B000014B9B68019308BD181C0020000000D01C
:1058C000FFB550404240504059404B40594000E0E5
:1058D000FFB5154F4C00640D03D0BC4204D10C033E
:1058E00014D80020090D09055C00640D03D0BC42EA
:1058F00004D11C030AD800221B0D1B0501264B40B6
:1059000009D44B4003D58B4200D18242FFBD99425E
:10591000FCD19042FFBD0B43DB1803431343F5D08A
:10592000C9434918FFBD0000FF07000000B5FFF79D
:10593000CFFF804100BDC04600B5FFF7C1FF01D9D0
:10594000002000BD012000BD00B5FFF7B9FF804178
:1059500000BD012040054A00121804D85A00121850
:1059600001D80020704701207047002070470000D8
:105970000021002805D17047C1174840401AFAD0CD
:10598000C90713B5064B1B6898470CBC441CA240C2
:105990001005120B0349091B09051943114310BDDA
:1059A000442B00201F04000010B54C00620D802322
:1059B000D218DB00D21A5B057E2A10DD9E3A13DA7C
:1059C000CC170903490819435242D14064000134FD
:1059D0001532202A05DAD0400843604310BD00206C
:1059E00010BD0846604310BDC80FC018013810BD77
:1059F00018B4024B5B6A019308BD0000181C00201C
:105A000010B50148FEF784F8842C0110132370B5FB
:105A10001D78012D15D010DD1B48FFF797FC1B4C9E
:105A200001008022200000F04DF9022D06D0184818
:105A3000FFF784FC174B186070BD144C164BA36421
:105A4000F5E7164B114C23606360A360E3602361AC
:105A50006361A361E36123626362A362E362236320
:105A60006363A363E36323646364A364E364236500
:105A70006365A365E36523666366A366E3662367E0
:105A80006367A367E367D9E753440000181C00204D
:105A90004C330000442B0020A15A0010015A001082
:105AA00007B5604601880A0A0230DF2AFAD1C9B276
:105AB000820804D3028840880004104300E0006894
:105AC000014A5050039007BD181C00205143434326
:105AD000C9188C46110C83B24B4310B4040C6143BB
